{
  "contractName": "MarketPlace",
  "abi": [
    {
      "inputs": [],
      "stateMutability": "nonpayable",
      "type": "constructor"
    },
    {
      "anonymous": false,
      "inputs": [
        {
          "indexed": true,
          "internalType": "address",
          "name": "owner",
          "type": "address"
        },
        {
          "indexed": true,
          "internalType": "address",
          "name": "approved",
          "type": "address"
        },
        {
          "indexed": true,
          "internalType": "uint256",
          "name": "tokenId",
          "type": "uint256"
        }
      ],
      "name": "Approval",
      "type": "event"
    },
    {
      "anonymous": false,
      "inputs": [
        {
          "indexed": true,
          "internalType": "address",
          "name": "owner",
          "type": "address"
        },
        {
          "indexed": true,
          "internalType": "address",
          "name": "operator",
          "type": "address"
        },
        {
          "indexed": false,
          "internalType": "bool",
          "name": "approved",
          "type": "bool"
        }
      ],
      "name": "ApprovalForAll",
      "type": "event"
    },
    {
      "anonymous": false,
      "inputs": [
        {
          "indexed": true,
          "internalType": "address",
          "name": "from",
          "type": "address"
        },
        {
          "indexed": true,
          "internalType": "address",
          "name": "to",
          "type": "address"
        },
        {
          "indexed": true,
          "internalType": "uint256",
          "name": "tokenId",
          "type": "uint256"
        }
      ],
      "name": "Transfer",
      "type": "event"
    },
    {
      "inputs": [],
      "name": "_tokenIds",
      "outputs": [
        {
          "internalType": "uint256",
          "name": "_value",
          "type": "uint256"
        }
      ],
      "stateMutability": "view",
      "type": "function",
      "constant": true
    },
    {
      "inputs": [
        {
          "internalType": "address",
          "name": "to",
          "type": "address"
        },
        {
          "internalType": "uint256",
          "name": "tokenId",
          "type": "uint256"
        }
      ],
      "name": "approve",
      "outputs": [],
      "stateMutability": "nonpayable",
      "type": "function"
    },
    {
      "inputs": [
        {
          "internalType": "address",
          "name": "owner",
          "type": "address"
        }
      ],
      "name": "balanceOf",
      "outputs": [
        {
          "internalType": "uint256",
          "name": "",
          "type": "uint256"
        }
      ],
      "stateMutability": "view",
      "type": "function",
      "constant": true
    },
    {
      "inputs": [
        {
          "internalType": "uint256",
          "name": "tokenId",
          "type": "uint256"
        }
      ],
      "name": "getApproved",
      "outputs": [
        {
          "internalType": "address",
          "name": "",
          "type": "address"
        }
      ],
      "stateMutability": "view",
      "type": "function",
      "constant": true
    },
    {
      "inputs": [
        {
          "internalType": "address",
          "name": "owner",
          "type": "address"
        },
        {
          "internalType": "address",
          "name": "operator",
          "type": "address"
        }
      ],
      "name": "isApprovedForAll",
      "outputs": [
        {
          "internalType": "bool",
          "name": "",
          "type": "bool"
        }
      ],
      "stateMutability": "view",
      "type": "function",
      "constant": true
    },
    {
      "inputs": [],
      "name": "minero",
      "outputs": [
        {
          "internalType": "address",
          "name": "",
          "type": "address"
        }
      ],
      "stateMutability": "view",
      "type": "function",
      "constant": true
    },
    {
      "inputs": [],
      "name": "nTokenOnSale",
      "outputs": [
        {
          "internalType": "uint256",
          "name": "",
          "type": "uint256"
        }
      ],
      "stateMutability": "view",
      "type": "function",
      "constant": true
    },
    {
      "inputs": [],
      "name": "name",
      "outputs": [
        {
          "internalType": "string",
          "name": "",
          "type": "string"
        }
      ],
      "stateMutability": "view",
      "type": "function",
      "constant": true
    },
    {
      "inputs": [
        {
          "internalType": "uint256",
          "name": "tokenId",
          "type": "uint256"
        }
      ],
      "name": "ownerOf",
      "outputs": [
        {
          "internalType": "address",
          "name": "",
          "type": "address"
        }
      ],
      "stateMutability": "view",
      "type": "function",
      "constant": true
    },
    {
      "inputs": [
        {
          "internalType": "address",
          "name": "from",
          "type": "address"
        },
        {
          "internalType": "address",
          "name": "to",
          "type": "address"
        },
        {
          "internalType": "uint256",
          "name": "tokenId",
          "type": "uint256"
        }
      ],
      "name": "safeTransferFrom",
      "outputs": [],
      "stateMutability": "nonpayable",
      "type": "function"
    },
    {
      "inputs": [
        {
          "internalType": "address",
          "name": "from",
          "type": "address"
        },
        {
          "internalType": "address",
          "name": "to",
          "type": "address"
        },
        {
          "internalType": "uint256",
          "name": "tokenId",
          "type": "uint256"
        },
        {
          "internalType": "bytes",
          "name": "_data",
          "type": "bytes"
        }
      ],
      "name": "safeTransferFrom",
      "outputs": [],
      "stateMutability": "nonpayable",
      "type": "function"
    },
    {
      "inputs": [
        {
          "internalType": "address",
          "name": "operator",
          "type": "address"
        },
        {
          "internalType": "bool",
          "name": "approved",
          "type": "bool"
        }
      ],
      "name": "setApprovalForAll",
      "outputs": [],
      "stateMutability": "nonpayable",
      "type": "function"
    },
    {
      "inputs": [
        {
          "internalType": "bytes4",
          "name": "interfaceId",
          "type": "bytes4"
        }
      ],
      "name": "supportsInterface",
      "outputs": [
        {
          "internalType": "bool",
          "name": "",
          "type": "bool"
        }
      ],
      "stateMutability": "view",
      "type": "function",
      "constant": true
    },
    {
      "inputs": [],
      "name": "symbol",
      "outputs": [
        {
          "internalType": "string",
          "name": "",
          "type": "string"
        }
      ],
      "stateMutability": "view",
      "type": "function",
      "constant": true
    },
    {
      "inputs": [
        {
          "internalType": "uint256",
          "name": "index",
          "type": "uint256"
        }
      ],
      "name": "tokenByIndex",
      "outputs": [
        {
          "internalType": "uint256",
          "name": "",
          "type": "uint256"
        }
      ],
      "stateMutability": "view",
      "type": "function",
      "constant": true
    },
    {
      "inputs": [
        {
          "internalType": "address",
          "name": "owner",
          "type": "address"
        },
        {
          "internalType": "uint256",
          "name": "index",
          "type": "uint256"
        }
      ],
      "name": "tokenOfOwnerByIndex",
      "outputs": [
        {
          "internalType": "uint256",
          "name": "",
          "type": "uint256"
        }
      ],
      "stateMutability": "view",
      "type": "function",
      "constant": true
    },
    {
      "inputs": [
        {
          "internalType": "uint256",
          "name": "tokenId",
          "type": "uint256"
        }
      ],
      "name": "tokenURI",
      "outputs": [
        {
          "internalType": "string",
          "name": "",
          "type": "string"
        }
      ],
      "stateMutability": "view",
      "type": "function",
      "constant": true
    },
    {
      "inputs": [
        {
          "internalType": "uint256",
          "name": "",
          "type": "uint256"
        }
      ],
      "name": "tokensData",
      "outputs": [
        {
          "internalType": "uint256",
          "name": "price",
          "type": "uint256"
        },
        {
          "internalType": "string",
          "name": "data",
          "type": "string"
        },
        {
          "internalType": "bool",
          "name": "onSale",
          "type": "bool"
        },
        {
          "internalType": "uint256",
          "name": "tokenID",
          "type": "uint256"
        }
      ],
      "stateMutability": "view",
      "type": "function",
      "constant": true
    },
    {
      "inputs": [],
      "name": "totalSupply",
      "outputs": [
        {
          "internalType": "uint256",
          "name": "",
          "type": "uint256"
        }
      ],
      "stateMutability": "view",
      "type": "function",
      "constant": true
    },
    {
      "inputs": [
        {
          "internalType": "address",
          "name": "from",
          "type": "address"
        },
        {
          "internalType": "address",
          "name": "to",
          "type": "address"
        },
        {
          "internalType": "uint256",
          "name": "tokenId",
          "type": "uint256"
        }
      ],
      "name": "transferFrom",
      "outputs": [],
      "stateMutability": "nonpayable",
      "type": "function"
    },
    {
      "inputs": [
        {
          "internalType": "address",
          "name": "receptor",
          "type": "address"
        },
        {
          "internalType": "string",
          "name": "datos",
          "type": "string"
        },
        {
          "internalType": "uint256",
          "name": "price",
          "type": "uint256"
        }
      ],
      "name": "minar",
      "outputs": [
        {
          "internalType": "uint256",
          "name": "",
          "type": "uint256"
        }
      ],
      "stateMutability": "nonpayable",
      "type": "function"
    },
    {
      "inputs": [
        {
          "internalType": "address",
          "name": "to",
          "type": "address"
        },
        {
          "internalType": "uint256",
          "name": "tokenId",
          "type": "uint256"
        }
      ],
      "name": "transferirNft",
      "outputs": [
        {
          "internalType": "address",
          "name": "",
          "type": "address"
        }
      ],
      "stateMutability": "nonpayable",
      "type": "function"
    },
    {
      "inputs": [
        {
          "internalType": "uint256",
          "name": "tokenId",
          "type": "uint256"
        }
      ],
      "name": "quemarNft",
      "outputs": [
        {
          "internalType": "bool",
          "name": "",
          "type": "bool"
        }
      ],
      "stateMutability": "nonpayable",
      "type": "function"
    },
    {
      "inputs": [
        {
          "internalType": "uint256",
          "name": "tokenid",
          "type": "uint256"
        },
        {
          "internalType": "uint256",
          "name": "price",
          "type": "uint256"
        }
      ],
      "name": "revender",
      "outputs": [],
      "stateMutability": "nonpayable",
      "type": "function"
    },
    {
      "inputs": [
        {
          "internalType": "uint256",
          "name": "tokenid",
          "type": "uint256"
        }
      ],
      "name": "quitarDelMarketPlace",
      "outputs": [],
      "stateMutability": "nonpayable",
      "type": "function"
    },
    {
      "inputs": [],
      "name": "obtenerNfts",
      "outputs": [
        {
          "components": [
            {
              "internalType": "uint256",
              "name": "price",
              "type": "uint256"
            },
            {
              "internalType": "string",
              "name": "data",
              "type": "string"
            },
            {
              "internalType": "bool",
              "name": "onSale",
              "type": "bool"
            },
            {
              "internalType": "uint256",
              "name": "tokenID",
              "type": "uint256"
            }
          ],
          "internalType": "struct MarketPlace.tokenData[]",
          "name": "",
          "type": "tuple[]"
        }
      ],
      "stateMutability": "view",
      "type": "function",
      "constant": true
    },
    {
      "inputs": [
        {
          "internalType": "uint256",
          "name": "nTokenP",
          "type": "uint256"
        },
        {
          "internalType": "uint256",
          "name": "nPagina",
          "type": "uint256"
        }
      ],
      "name": "obtenerPaginav1",
      "outputs": [
        {
          "components": [
            {
              "internalType": "uint256",
              "name": "price",
              "type": "uint256"
            },
            {
              "internalType": "string",
              "name": "data",
              "type": "string"
            },
            {
              "internalType": "bool",
              "name": "onSale",
              "type": "bool"
            },
            {
              "internalType": "uint256",
              "name": "tokenID",
              "type": "uint256"
            }
          ],
          "internalType": "struct MarketPlace.tokenData[]",
          "name": "",
          "type": "tuple[]"
        }
      ],
      "stateMutability": "view",
      "type": "function",
      "constant": true
    },
    {
      "inputs": [
        {
          "internalType": "uint256",
          "name": "nTokenP",
          "type": "uint256"
        },
        {
          "internalType": "uint256",
          "name": "nPagina",
          "type": "uint256"
        }
      ],
      "name": "obtenerPaginav2",
      "outputs": [
        {
          "components": [
            {
              "internalType": "uint256",
              "name": "price",
              "type": "uint256"
            },
            {
              "internalType": "string",
              "name": "data",
              "type": "string"
            },
            {
              "internalType": "bool",
              "name": "onSale",
              "type": "bool"
            },
            {
              "internalType": "uint256",
              "name": "tokenID",
              "type": "uint256"
            }
          ],
          "internalType": "struct MarketPlace.tokenData[]",
          "name": "",
          "type": "tuple[]"
        }
      ],
      "stateMutability": "view",
      "type": "function",
      "constant": true
    },
    {
      "inputs": [
        {
          "internalType": "uint256",
          "name": "tokenId",
          "type": "uint256"
        }
      ],
      "name": "comprarNft",
      "outputs": [],
      "stateMutability": "payable",
      "type": "function",
      "payable": true
    },
    {
      "inputs": [
        {
          "internalType": "address",
          "name": "owner",
          "type": "address"
        }
      ],
      "name": "tokensOf",
      "outputs": [
        {
          "components": [
            {
              "internalType": "uint256",
              "name": "price",
              "type": "uint256"
            },
            {
              "internalType": "string",
              "name": "data",
              "type": "string"
            },
            {
              "internalType": "bool",
              "name": "onSale",
              "type": "bool"
            },
            {
              "internalType": "uint256",
              "name": "tokenID",
              "type": "uint256"
            }
          ],
          "internalType": "struct MarketPlace.tokenData[]",
          "name": "",
          "type": "tuple[]"
        }
      ],
      "stateMutability": "view",
      "type": "function",
      "constant": true
    },
    {
      "inputs": [
        {
          "internalType": "address",
          "name": "owner",
          "type": "address"
        },
        {
          "internalType": "uint256",
          "name": "nTok_porpagina",
          "type": "uint256"
        },
        {
          "internalType": "uint256",
          "name": "pag",
          "type": "uint256"
        }
      ],
      "name": "tokensOfPaginav1",
      "outputs": [
        {
          "components": [
            {
              "internalType": "uint256",
              "name": "price",
              "type": "uint256"
            },
            {
              "internalType": "string",
              "name": "data",
              "type": "string"
            },
            {
              "internalType": "bool",
              "name": "onSale",
              "type": "bool"
            },
            {
              "internalType": "uint256",
              "name": "tokenID",
              "type": "uint256"
            }
          ],
          "internalType": "struct MarketPlace.tokenData[]",
          "name": "",
          "type": "tuple[]"
        }
      ],
      "stateMutability": "view",
      "type": "function",
      "constant": true
    },
    {
      "inputs": [
        {
          "internalType": "uint256",
          "name": "_token",
          "type": "uint256"
        }
      ],
      "name": "getItemInfo",
      "outputs": [
        {
          "components": [
            {
              "internalType": "uint256",
              "name": "price",
              "type": "uint256"
            },
            {
              "internalType": "string",
              "name": "data",
              "type": "string"
            },
            {
              "internalType": "bool",
              "name": "onSale",
              "type": "bool"
            },
            {
              "internalType": "uint256",
              "name": "tokenID",
              "type": "uint256"
            }
          ],
          "internalType": "struct MarketPlace.tokenData[]",
          "name": "",
          "type": "tuple[]"
        }
      ],
      "stateMutability": "view",
      "type": "function",
      "constant": true
    },
    {
      "inputs": [
        {
          "internalType": "uint256",
          "name": "_Mintoken",
          "type": "uint256"
        },
        {
          "internalType": "uint256",
          "name": "_Maxtoken",
          "type": "uint256"
        }
      ],
      "name": "obtenerNftsbyrango",
      "outputs": [
        {
          "components": [
            {
              "internalType": "uint256",
              "name": "price",
              "type": "uint256"
            },
            {
              "internalType": "string",
              "name": "data",
              "type": "string"
            },
            {
              "internalType": "bool",
              "name": "onSale",
              "type": "bool"
            },
            {
              "internalType": "uint256",
              "name": "tokenID",
              "type": "uint256"
            }
          ],
          "internalType": "struct MarketPlace.tokenData[]",
          "name": "",
          "type": "tuple[]"
        }
      ],
      "stateMutability": "view",
      "type": "function",
      "constant": true
    }
  ],
  "bytecode": "0x60806040523480156200001157600080fd5b506040518060400160405280600b81526020017f4d61726b6574506c6163650000000000000000000000000000000000000000008152506040518060400160405280600381526020017f4d50450000000000000000000000000000000000000000000000000000000000815250816000908051906020019062000096929190620000f9565b508060019080519060200190620000af929190620000f9565b50505033600b60006101000a81548173ffffffffffffffffffffffffffffffffffffffff021916908373ffffffffffffffffffffffffffffffffffffffff1602179055506200020e565b8280546200010790620001a9565b90600052602060002090601f0160209004810192826200012b576000855562000177565b82601f106200014657805160ff191683800117855562000177565b8280016001018555821562000177579182015b828111156200017657825182559160200191906001019062000159565b5b5090506200018691906200018a565b5090565b5b80821115620001a55760008160009055506001016200018b565b5090565b60006002820490506001821680620001c257607f821691505b60208210811415620001d957620001d8620001df565b5b50919050565b7f4e487b7100000000000000000000000000000000000000000000000000000000600052602260045260246000fd5b615415806200021e6000396000f3fe6080604052600436106101ee5760003560e01c80635a3f26721161010d578063b88d4fde116100a0578063e985e9c51161006f578063e985e9c514610798578063edfd03bd146107d5578063f5a99e90146107f1578063f5d8b8a31461082e578063ffff5b021461086b576101ee565b8063b88d4fde146106b8578063c87b56dd146106e1578063de7fe3e71461071e578063e7a82a011461075b576101ee565b80639c62a52a116100dc5780639c62a52a146105fc578063a22cb46514610639578063aa46a40014610662578063b2d8adc81461068d576101ee565b80635a3f26721461051a5780636352211e1461055757806370a082311461059457806395d89b41146105d1576101ee565b8063390b9151116101855780634f6ccce7116101545780634f6ccce7146104355780635551ef611461047257806356ce03f11461049d578063599ed3ff146104da576101ee565b8063390b91511461037b5780633d049d0c146103a45780633fe97648146103e157806342842e0e1461040c576101ee565b806318160ddd116101c157806318160ddd146102c15780631d3923ed146102ec57806323b872dd146103155780632f745c591461033e576101ee565b806301ffc9a7146101f357806306fdde0314610230578063081812fc1461025b578063095ea7b314610298575b600080fd5b3480156101ff57600080fd5b5061021a60048036038101906102159190613d7d565b6108a8565b604051610227919061445f565b60405180910390f35b34801561023c57600080fd5b50610245610922565b604051610252919061447a565b60405180910390f35b34801561026757600080fd5b50610282600480360381019061027d9190613dcf565b6109b4565b60405161028f91906143d6565b60405180910390f35b3480156102a457600080fd5b506102bf60048036038101906102ba9190613cf2565b610a39565b005b3480156102cd57600080fd5b506102d6610b51565b6040516102e391906147bc565b60405180910390f35b3480156102f857600080fd5b50610313600480360381019061030e9190613dcf565b610b5e565b005b34801561032157600080fd5b5061033c60048036038101906103379190613b85565b610c69565b005b34801561034a57600080fd5b5061036560048036038101906103609190613cf2565b610cc9565b60405161037291906147bc565b60405180910390f35b34801561038757600080fd5b506103a2600480360381019061039d9190613df8565b610d6e565b005b3480156103b057600080fd5b506103cb60048036038101906103c69190613d2e565b610e8d565b6040516103d8919061443d565b60405180910390f35b3480156103ed57600080fd5b506103f66110ad565b60405161040391906147bc565b60405180910390f35b34801561041857600080fd5b50610433600480360381019061042e9190613b85565b6110b3565b005b34801561044157600080fd5b5061045c60048036038101906104579190613dcf565b6110d3565b60405161046991906147bc565b60405180910390f35b34801561047e57600080fd5b5061048761116a565b604051610494919061443d565b60405180910390f35b3480156104a957600080fd5b506104c460048036038101906104bf9190613cf2565b611342565b6040516104d191906143d6565b60405180910390f35b3480156104e657600080fd5b5061050160048036038101906104fc9190613dcf565b611416565b60405161051194939291906147d7565b60405180910390f35b34801561052657600080fd5b50610541600480360381019061053c9190613b20565b6114db565b60405161054e919061443d565b60405180910390f35b34801561056357600080fd5b5061057e60048036038101906105799190613dcf565b611749565b60405161058b91906143d6565b60405180910390f35b3480156105a057600080fd5b506105bb60048036038101906105b69190613b20565b6117fb565b6040516105c891906147bc565b60405180910390f35b3480156105dd57600080fd5b506105e66118b3565b6040516105f3919061447a565b60405180910390f35b34801561060857600080fd5b50610623600480360381019061061e9190613c8b565b611945565b60405161063091906147bc565b60405180910390f35b34801561064557600080fd5b50610660600480360381019061065b9190613c4f565b611a1b565b005b34801561066e57600080fd5b50610677611b9c565b60405161068491906147bc565b60405180910390f35b34801561069957600080fd5b506106a2611ba8565b6040516106af91906143d6565b60405180910390f35b3480156106c457600080fd5b506106df60048036038101906106da9190613bd4565b611bce565b005b3480156106ed57600080fd5b5061070860048036038101906107039190613dcf565b611c30565b604051610715919061447a565b60405180910390f35b34801561072a57600080fd5b5061074560048036038101906107409190613dcf565b611cd7565b604051610752919061443d565b60405180910390f35b34801561076757600080fd5b50610782600480360381019061077d9190613dcf565b611e85565b60405161078f919061445f565b60405180910390f35b3480156107a457600080fd5b506107bf60048036038101906107ba9190613b49565b611f57565b6040516107cc919061445f565b60405180910390f35b6107ef60048036038101906107ea9190613dcf565b611feb565b005b3480156107fd57600080fd5b5061081860048036038101906108139190613df8565b612150565b604051610825919061443d565b60405180910390f35b34801561083a57600080fd5b5061085560048036038101906108509190613df8565b6123ad565b604051610862919061443d565b60405180910390f35b34801561087757600080fd5b50610892600480360381019061088d9190613df8565b6125af565b60405161089f919061443d565b60405180910390f35b60007f780e9d63000000000000000000000000000000000000000000000000000000007bffffffffffffffffffffffffffffffffffffffffffffffffffffffff1916827bffffffffffffffffffffffffffffffffffffffffffffffffffffffff1916148061091b575061091a82612809565b5b9050919050565b60606000805461093190614b2c565b80601f016020809104026020016040519081016040528092919081815260200182805461095d90614b2c565b80156109aa5780601f1061097f576101008083540402835291602001916109aa565b820191906000526020600020905b81548152906001019060200180831161098d57829003601f168201915b5050505050905090565b60006109bf826128eb565b6109fe576040517f08c379a00000000000000000000000000000000000000000000000000000000081526004016109f59061461c565b60405180910390fd5b6004600083815260200190815260200160002060009054906101000a900473ffffffffffffffffffffffffffffffffffffffff169050919050565b6000610a4482611749565b90508073ffffffffffffffffffffffffffffffffffffffff168373ffffffffffffffffffffffffffffffffffffffff161415610ab5576040517f08c379a0000000000000000000000000000000000000000000000000000000008152600401610aac9061469c565b60405180910390fd5b8073ffffffffffffffffffffffffffffffffffffffff16610ad4612957565b73ffffffffffffffffffffffffffffffffffffffff161480610b035750610b0281610afd612957565b611f57565b5b610b42576040517f08c379a0000000000000000000000000000000000000000000000000000000008152600401610b399061457c565b60405180910390fd5b610b4c838361295f565b505050565b6000600880549050905090565b3373ffffffffffffffffffffffffffffffffffffffff16610b7e82611749565b73ffffffffffffffffffffffffffffffffffffffff1614610bd4576040517f08c379a0000000000000000000000000000000000000000000000000000000008152600401610bcb906145dc565b60405180910390fd5b610bde600a612a18565b8110610c1f576040517f08c379a0000000000000000000000000000000000000000000000000000000008152600401610c169061477c565b60405180910390fd5b6000600d600083815260200190815260200160002060020160006101000a81548160ff021916908315150217905550600c6000815480929190610c6190614b02565b919050555050565b610c7a610c74612957565b82612a26565b610cb9576040517f08c379a0000000000000000000000000000000000000000000000000000000008152600401610cb0906146dc565b60405180910390fd5b610cc4838383612b04565b505050565b6000610cd4836117fb565b8210610d15576040517f08c379a0000000000000000000000000000000000000000000000000000000008152600401610d0c9061449c565b60405180910390fd5b600660008473ffffffffffffffffffffffffffffffffffffffff1673ffffffffffffffffffffffffffffffffffffffff168152602001908152602001600020600083815260200190815260200160002054905092915050565b3373ffffffffffffffffffffffffffffffffffffffff16610d8e83611749565b73ffffffffffffffffffffffffffffffffffffffff1614610de4576040517f08c379a0000000000000000000000000000000000000000000000000000000008152600401610ddb906145dc565b60405180910390fd5b60008111610e27576040517f08c379a0000000000000000000000000000000000000000000000000000000008152600401610e1e9061475c565b60405180910390fd5b6001600d600084815260200190815260200160002060020160006101000a81548160ff02191690831515021790555080600d600084815260200190815260200160002060000181905550600c6000815480929190610e8490614b8f565b91905055505050565b60606000610e9a856117fb565b905060008484610eaa91906149be565b905060008582610eba9190614937565b905082811115610ec8578290505b60008667ffffffffffffffff811115610f0a577f4e487b7100000000000000000000000000000000000000000000000000000000600052604160045260246000fd5b604051908082528060200260200182016040528015610f4357816020015b610f3061391a565b815260200190600190039081610f285790505b50905060008390505b8281101561109e57600d6000610f628b84610cc9565b815260200190815260200160002060405180608001604052908160008201548152602001600182018054610f9590614b2c565b80601f0160208091040260200160405190810160405280929190818152602001828054610fc190614b2c565b801561100e5780601f10610fe35761010080835404028352916020019161100e565b820191906000526020600020905b815481529060010190602001808311610ff157829003601f168201915b505050505081526020016002820160009054906101000a900460ff161515151581526020016003820154815250508285836110499190614a18565b81518110611080577f4e487b7100000000000000000000000000000000000000000000000000000000600052603260045260246000fd5b6020026020010181905250808061109690614b8f565b915050610f4c565b50809450505050509392505050565b600c5481565b6110ce83838360405180602001604052806000815250611bce565b505050565b60006110dd610b51565b821061111e576040517f08c379a0000000000000000000000000000000000000000000000000000000008152600401611115906146fc565b60405180910390fd5b60088281548110611158577f4e487b7100000000000000000000000000000000000000000000000000000000600052603260045260246000fd5b90600052602060002001549050919050565b60606000611178600a612a18565b905060008167ffffffffffffffff8111156111bc577f4e487b7100000000000000000000000000000000000000000000000000000000600052604160045260246000fd5b6040519080825280602002602001820160405280156111f557816020015b6111e261391a565b8152602001906001900390816111da5790505b50905060005b8281101561133957600d60008281526020019081526020016000206040518060800160405290816000820154815260200160018201805461123b90614b2c565b80601f016020809104026020016040519081016040528092919081815260200182805461126790614b2c565b80156112b45780601f10611289576101008083540402835291602001916112b4565b820191906000526020600020905b81548152906001019060200180831161129757829003601f168201915b505050505081526020016002820160009054906101000a900460ff1615151515815260200160038201548152505082828151811061131b577f4e487b7100000000000000000000000000000000000000000000000000000000600052603260045260246000fd5b6020026020010181905250808061133190614b8f565b9150506111fb565b50809250505090565b600061134d826128eb565b61138c576040517f08c379a00000000000000000000000000000000000000000000000000000000081526004016113839061453c565b60405180910390fd5b61139582611749565b73ffffffffffffffffffffffffffffffffffffffff163373ffffffffffffffffffffffffffffffffffffffff1614611402576040517f08c379a00000000000000000000000000000000000000000000000000000000081526004016113f9906146bc565b60405180910390fd5b61140d3384846110b3565b82905092915050565b600d60205280600052604060002060009150905080600001549080600101805461143f90614b2c565b80601f016020809104026020016040519081016040528092919081815260200182805461146b90614b2c565b80156114b85780601f1061148d576101008083540402835291602001916114b8565b820191906000526020600020905b81548152906001019060200180831161149b57829003601f168201915b5050505050908060020160009054906101000a900460ff16908060030154905084565b606060006114e8836117fb565b90506000811415611575578067ffffffffffffffff811115611533577f4e487b7100000000000000000000000000000000000000000000000000000000600052604160045260246000fd5b60405190808252806020026020018201604052801561156c57816020015b61155961391a565b8152602001906001900390816115515790505b50915050611744565b60008167ffffffffffffffff8111156115b7577f4e487b7100000000000000000000000000000000000000000000000000000000600052604160045260246000fd5b6040519080825280602002602001820160405280156115f057816020015b6115dd61391a565b8152602001906001900390816115d55790505b50905060005b8281101561173d57600d600061160c8784610cc9565b81526020019081526020016000206040518060800160405290816000820154815260200160018201805461163f90614b2c565b80601f016020809104026020016040519081016040528092919081815260200182805461166b90614b2c565b80156116b85780601f1061168d576101008083540402835291602001916116b8565b820191906000526020600020905b81548152906001019060200180831161169b57829003601f168201915b505050505081526020016002820160009054906101000a900460ff1615151515815260200160038201548152505082828151811061171f577f4e487b7100000000000000000000000000000000000000000000000000000000600052603260045260246000fd5b6020026020010181905250808061173590614b8f565b9150506115f6565b5080925050505b919050565b6000806002600084815260200190815260200160002060009054906101000a900473ffffffffffffffffffffffffffffffffffffffff169050600073ffffffffffffffffffffffffffffffffffffffff168173ffffffffffffffffffffffffffffffffffffffff1614156117f2576040517f08c379a00000000000000000000000000000000000000000000000000000000081526004016117e9906145bc565b60405180910390fd5b80915050919050565b60008073ffffffffffffffffffffffffffffffffffffffff168273ffffffffffffffffffffffffffffffffffffffff16141561186c576040517f08c379a00000000000000000000000000000000000000000000000000000000081526004016118639061459c565b60405180910390fd5b600360008373ffffffffffffffffffffffffffffffffffffffff1673ffffffffffffffffffffffffffffffffffffffff168152602001908152602001600020549050919050565b6060600180546118c290614b2c565b80601f01602080910402602001604051908101604052809291908181526020018280546118ee90614b2c565b801561193b5780601f106119105761010080835404028352916020019161193b565b820191906000526020600020905b81548152906001019060200180831161191e57829003601f168201915b5050505050905090565b600080611952600a612a18565b905061195e600a612d60565b6119688582612d76565b83600d60008381526020019081526020016000206001019080519060200190611992929190613944565b5082600d6000838152602001908152602001600020600001819055506001600d600083815260200190815260200160002060020160006101000a81548160ff02191690831515021790555080600d600083815260200190815260200160002060030181905550600c6000815480929190611a0b90614b8f565b9190505550809150509392505050565b611a23612957565b73ffffffffffffffffffffffffffffffffffffffff168273ffffffffffffffffffffffffffffffffffffffff161415611a91576040517f08c379a0000000000000000000000000000000000000000000000000000000008152600401611a889061451c565b60405180910390fd5b8060056000611a9e612957565b73ffffffffffffffffffffffffffffffffffffffff1673ffffffffffffffffffffffffffffffffffffffff16815260200190815260200160002060008473ffffffffffffffffffffffffffffffffffffffff1673ffffffffffffffffffffffffffffffffffffffff16815260200190815260200160002060006101000a81548160ff0219169083151502179055508173ffffffffffffffffffffffffffffffffffffffff16611b4b612957565b73ffffffffffffffffffffffffffffffffffffffff167f17307eab39ab6107e8899845ad3d59bd9653f200f220920489ca2b5937696c3183604051611b90919061445f565b60405180910390a35050565b600a8060000154905081565b600b60009054906101000a900473ffffffffffffffffffffffffffffffffffffffff1681565b611bdf611bd9612957565b83612a26565b611c1e576040517f08c379a0000000000000000000000000000000000000000000000000000000008152600401611c15906146dc565b60405180910390fd5b611c2a84848484612f44565b50505050565b6060611c3b826128eb565b611c7a576040517f08c379a0000000000000000000000000000000000000000000000000000000008152600401611c719061467c565b60405180910390fd5b6000611c84612fa0565b90506000815111611ca45760405180602001604052806000815250611ccf565b80611cae84612fb7565b604051602001611cbf9291906143b2565b6040516020818303038152906040525b915050919050565b60606000600167ffffffffffffffff811115611d1c577f4e487b7100000000000000000000000000000000000000000000000000000000600052604160045260246000fd5b604051908082528060200260200182016040528015611d5557816020015b611d4261391a565b815260200190600190039081611d3a5790505b509050600d600084815260200190815260200160002060405180608001604052908160008201548152602001600182018054611d9090614b2c565b80601f0160208091040260200160405190810160405280929190818152602001828054611dbc90614b2c565b8015611e095780601f10611dde57610100808354040283529160200191611e09565b820191906000526020600020905b815481529060010190602001808311611dec57829003601f168201915b505050505081526020016002820160009054906101000a900460ff1615151515815260200160038201548152505081600081518110611e71577f4e487b7100000000000000000000000000000000000000000000000000000000600052603260045260246000fd5b602002602001018190525080915050919050565b6000611e90826128eb565b611ecf576040517f08c379a0000000000000000000000000000000000000000000000000000000008152600401611ec69061463c565b60405180910390fd5b611ed882611749565b73ffffffffffffffffffffffffffffffffffffffff163373ffffffffffffffffffffffffffffffffffffffff1614611f45576040517f08c379a0000000000000000000000000000000000000000000000000000000008152600401611f3c906146bc565b60405180910390fd5b611f4e82613164565b60019050919050565b6000600560008473ffffffffffffffffffffffffffffffffffffffff1673ffffffffffffffffffffffffffffffffffffffff16815260200190815260200160002060008373ffffffffffffffffffffffffffffffffffffffff1673ffffffffffffffffffffffffffffffffffffffff16815260200190815260200160002060009054906101000a900460ff16905092915050565b600d6000828152602001908152602001600020600001543414612043576040517f08c379a000000000000000000000000000000000000000000000000000000000815260040161203a9061473c565b60405180910390fd5b600d600082815260200190815260200160002060020160009054906101000a900460ff166120a6576040517f08c379a000000000000000000000000000000000000000000000000000000000815260040161209d9061479c565b60405180910390fd5b60006120b182611749565b90506120be813384612b04565b8073ffffffffffffffffffffffffffffffffffffffff166108fc349081150290604051600060405180830381858888f19350505050158015612104573d6000803e3d6000fd5b506000600d600084815260200190815260200160002060020160006101000a81548160ff021916908315150217905550600c600081548092919061214790614b02565b91905055505050565b6060600061215e600a612a18565b905060008060008667ffffffffffffffff8111156121a5577f4e487b7100000000000000000000000000000000000000000000000000000000600052604160045260246000fd5b6040519080825280602002602001820160405280156121de57816020015b6121cb61391a565b8152602001906001900390816121c35790505b50905060005b8481101561239f57600d600082815260200190815260200160002060020160009054906101000a900460ff161561238c57828061222090614b8f565b935050868861222f91906149be565b831061236757600d60008281526020019081526020016000206040518060800160405290816000820154815260200160018201805461226d90614b2c565b80601f016020809104026020016040519081016040528092919081815260200182805461229990614b2c565b80156122e65780601f106122bb576101008083540402835291602001916122e6565b820191906000526020600020905b8154815290600101906020018083116122c957829003601f168201915b505050505081526020016002820160009054906101000a900460ff1615151515815260200160038201548152505082858151811061234d577f4e487b7100000000000000000000000000000000000000000000000000000000600052603260045260246000fd5b6020026020010181905250838061236390614b8f565b9450505b6001876123749190614937565b8861237f91906149be565b83141561238b5761239f565b5b808061239790614b8f565b9150506121e4565b508094505050505092915050565b6060600083836123bd91906149be565b905060008467ffffffffffffffff811115612401577f4e487b7100000000000000000000000000000000000000000000000000000000600052604160045260246000fd5b60405190808252806020026020018201604052801561243a57816020015b61242761391a565b81526020019060019003908161241f5790505b50905060008290505b6001856124509190614937565b8661245b91906149be565b8110156125a357600d60008281526020019081526020016000206040518060800160405290816000820154815260200160018201805461249a90614b2c565b80601f01602080910402602001604051908101604052809291908181526020018280546124c690614b2c565b80156125135780601f106124e857610100808354040283529160200191612513565b820191906000526020600020905b8154815290600101906020018083116124f657829003601f168201915b505050505081526020016002820160009054906101000a900460ff1615151515815260200160038201548152505082848361254e9190614a18565b81518110612585577f4e487b7100000000000000000000000000000000000000000000000000000000600052603260045260246000fd5b6020026020010181905250808061259b90614b8f565b915050612443565b50809250505092915050565b606060006125bd600a612a18565b116125fd576040517f08c379a00000000000000000000000000000000000000000000000000000000081526004016125f49061471c565b60405180910390fd5b6000612609600a612a18565b9050600084846126199190614a18565b905060008167ffffffffffffffff81111561265d577f4e487b7100000000000000000000000000000000000000000000000000000000600052604160045260246000fd5b60405190808252806020026020018201604052801561269657816020015b61268361391a565b81526020019060019003908161267b5790505b50905060005b838110156127fc578681101580156126b357508581105b156127dc57600d6000828152602001908152602001600020604051806080016040529081600082015481526020016001820180546126f090614b2c565b80601f016020809104026020016040519081016040528092919081815260200182805461271c90614b2c565b80156127695780601f1061273e57610100808354040283529160200191612769565b820191906000526020600020905b81548152906001019060200180831161274c57829003601f168201915b505050505081526020016002820160009054906101000a900460ff161515151581526020016003820154815250508282815181106127d0577f4e487b7100000000000000000000000000000000000000000000000000000000600052603260045260246000fd5b60200260200101819052505b858114156127e9576127fc565b80806127f490614b8f565b91505061269c565b5080935050505092915050565b60007f80ac58cd000000000000000000000000000000000000000000000000000000007bffffffffffffffffffffffffffffffffffffffffffffffffffffffff1916827bffffffffffffffffffffffffffffffffffffffffffffffffffffffff191614806128d457507f5b5e139f000000000000000000000000000000000000000000000000000000007bffffffffffffffffffffffffffffffffffffffffffffffffffffffff1916827bffffffffffffffffffffffffffffffffffffffffffffffffffffffff1916145b806128e457506128e382613275565b5b9050919050565b60008073ffffffffffffffffffffffffffffffffffffffff166002600084815260200190815260200160002060009054906101000a900473ffffffffffffffffffffffffffffffffffffffff1673ffffffffffffffffffffffffffffffffffffffff1614159050919050565b600033905090565b816004600083815260200190815260200160002060006101000a81548173ffffffffffffffffffffffffffffffffffffffff021916908373ffffffffffffffffffffffffffffffffffffffff160217905550808273ffffffffffffffffffffffffffffffffffffffff166129d283611749565b73ffffffffffffffffffffffffffffffffffffffff167f8c5be1e5ebec7d5bd14f71427d1e84f3dd0314c0f7b2291e5b200ac8c7c3b92560405160405180910390a45050565b600081600001549050919050565b6000612a31826128eb565b612a70576040517f08c379a0000000000000000000000000000000000000000000000000000000008152600401612a679061455c565b60405180910390fd5b6000612a7b83611749565b90508073ffffffffffffffffffffffffffffffffffffffff168473ffffffffffffffffffffffffffffffffffffffff161480612aea57508373ffffffffffffffffffffffffffffffffffffffff16612ad2846109b4565b73ffffffffffffffffffffffffffffffffffffffff16145b80612afb5750612afa8185611f57565b5b91505092915050565b8273ffffffffffffffffffffffffffffffffffffffff16612b2482611749565b73ffffffffffffffffffffffffffffffffffffffff1614612b7a576040517f08c379a0000000000000000000000000000000000000000000000000000000008152600401612b719061465c565b60405180910390fd5b600073ffffffffffffffffffffffffffffffffffffffff168273ffffffffffffffffffffffffffffffffffffffff161415612bea576040517f08c379a0000000000000000000000000000000000000000000000000000000008152600401612be1906144fc565b60405180910390fd5b612bf58383836132df565b612c0060008261295f565b6001600360008573ffffffffffffffffffffffffffffffffffffffff1673ffffffffffffffffffffffffffffffffffffffff1681526020019081526020016000206000828254612c509190614a18565b925050819055506001600360008473ffffffffffffffffffffffffffffffffffffffff1673ffffffffffffffffffffffffffffffffffffffff1681526020019081526020016000206000828254612ca79190614937565b92505081905550816002600083815260200190815260200160002060006101000a81548173ffffffffffffffffffffffffffffffffffffffff021916908373ffffffffffffffffffffffffffffffffffffffff160217905550808273ffffffffffffffffffffffffffffffffffffffff168473ffffffffffffffffffffffffffffffffffffffff167fddf252ad1be2c89b69c2b068fc378daa952ba7f163c4a11628f55a4df523b3ef60405160405180910390a4505050565b6001816000016000828254019250508190555050565b600073ffffffffffffffffffffffffffffffffffffffff168273ffffffffffffffffffffffffffffffffffffffff161415612de6576040517f08c379a0000000000000000000000000000000000000000000000000000000008152600401612ddd906145fc565b60405180910390fd5b612def816128eb565b15612e2f576040517f08c379a0000000000000000000000000000000000000000000000000000000008152600401612e26906144dc565b60405180910390fd5b612e3b600083836132df565b6001600360008473ffffffffffffffffffffffffffffffffffffffff1673ffffffffffffffffffffffffffffffffffffffff1681526020019081526020016000206000828254612e8b9190614937565b92505081905550816002600083815260200190815260200160002060006101000a81548173ffffffffffffffffffffffffffffffffffffffff021916908373ffffffffffffffffffffffffffffffffffffffff160217905550808273ffffffffffffffffffffffffffffffffffffffff16600073ffffffffffffffffffffffffffffffffffffffff167fddf252ad1be2c89b69c2b068fc378daa952ba7f163c4a11628f55a4df523b3ef60405160405180910390a45050565b612f4f848484612b04565b612f5b848484846133f3565b612f9a576040517f08c379a0000000000000000000000000000000000000000000000000000000008152600401612f91906144bc565b60405180910390fd5b50505050565b606060405180602001604052806000815250905090565b60606000821415612fff576040518060400160405280600181526020017f3000000000000000000000000000000000000000000000000000000000000000815250905061315f565b600082905060005b6000821461303157808061301a90614b8f565b915050600a8261302a919061498d565b9150613007565b60008167ffffffffffffffff811115613073577f4e487b7100000000000000000000000000000000000000000000000000000000600052604160045260246000fd5b6040519080825280601f01601f1916602001820160405280156130a55781602001600182028036833780820191505090505b5090505b60008514613158576001826130be9190614a18565b9150600a856130cd9190614bd8565b60306130d99190614937565b60f81b818381518110613115577f4e487b7100000000000000000000000000000000000000000000000000000000600052603260045260246000fd5b60200101907effffffffffffffffffffffffffffffffffffffffffffffffffffffffffffff1916908160001a905350600a85613151919061498d565b94506130a9565b8093505050505b919050565b600061316f82611749565b905061317d816000846132df565b61318860008361295f565b6001600360008373ffffffffffffffffffffffffffffffffffffffff1673ffffffffffffffffffffffffffffffffffffffff16815260200190815260200160002060008282546131d89190614a18565b925050819055506002600083815260200190815260200160002060006101000a81549073ffffffffffffffffffffffffffffffffffffffff021916905581600073ffffffffffffffffffffffffffffffffffffffff168273ffffffffffffffffffffffffffffffffffffffff167fddf252ad1be2c89b69c2b068fc378daa952ba7f163c4a11628f55a4df523b3ef60405160405180910390a45050565b60007f01ffc9a7000000000000000000000000000000000000000000000000000000007bffffffffffffffffffffffffffffffffffffffffffffffffffffffff1916827bffffffffffffffffffffffffffffffffffffffffffffffffffffffff1916149050919050565b6132ea83838361358a565b600073ffffffffffffffffffffffffffffffffffffffff168373ffffffffffffffffffffffffffffffffffffffff16141561332d576133288161358f565b61336c565b8173ffffffffffffffffffffffffffffffffffffffff168373ffffffffffffffffffffffffffffffffffffffff161461336b5761336a83826135d8565b5b5b600073ffffffffffffffffffffffffffffffffffffffff168273ffffffffffffffffffffffffffffffffffffffff1614156133af576133aa81613745565b6133ee565b8273ffffffffffffffffffffffffffffffffffffffff168273ffffffffffffffffffffffffffffffffffffffff16146133ed576133ec8282613888565b5b5b505050565b60006134148473ffffffffffffffffffffffffffffffffffffffff16613907565b1561357d578373ffffffffffffffffffffffffffffffffffffffff1663150b7a0261343d612957565b8786866040518563ffffffff1660e01b815260040161345f94939291906143f1565b602060405180830381600087803b15801561347957600080fd5b505af19250505080156134aa57506040513d601f19601f820116820180604052508101906134a79190613da6565b60015b61352d573d80600081146134da576040519150601f19603f3d011682016040523d82523d6000602084013e6134df565b606091505b50600081511415613525576040517f08c379a000000000000000000000000000000000000000000000000000000000815260040161351c906144bc565b60405180910390fd5b805181602001fd5b63150b7a0260e01b7bffffffffffffffffffffffffffffffffffffffffffffffffffffffff1916817bffffffffffffffffffffffffffffffffffffffffffffffffffffffff191614915050613582565b600190505b949350505050565b505050565b6008805490506009600083815260200190815260200160002081905550600881908060018154018082558091505060019003906000526020600020016000909190919091505550565b600060016135e5846117fb565b6135ef9190614a18565b90506000600760008481526020019081526020016000205490508181146136d4576000600660008673ffffffffffffffffffffffffffffffffffffffff1673ffffffffffffffffffffffffffffffffffffffff168152602001908152602001600020600084815260200190815260200160002054905080600660008773ffffffffffffffffffffffffffffffffffffffff1673ffffffffffffffffffffffffffffffffffffffff168152602001908152602001600020600084815260200190815260200160002081905550816007600083815260200190815260200160002081905550505b6007600084815260200190815260200160002060009055600660008573ffffffffffffffffffffffffffffffffffffffff1673ffffffffffffffffffffffffffffffffffffffff16815260200190815260200160002060008381526020019081526020016000206000905550505050565b600060016008805490506137599190614a18565b90506000600960008481526020019081526020016000205490506000600883815481106137af577f4e487b7100000000000000000000000000000000000000000000000000000000600052603260045260246000fd5b9060005260206000200154905080600883815481106137f7577f4e487b7100000000000000000000000000000000000000000000000000000000600052603260045260246000fd5b90600052602060002001819055508160096000838152602001908152602001600020819055506009600085815260200190815260200160002060009055600880548061386c577f4e487b7100000000000000000000000000000000000000000000000000000000600052603160045260246000fd5b6001900381819060005260206000200160009055905550505050565b6000613893836117fb565b905081600660008573ffffffffffffffffffffffffffffffffffffffff1673ffffffffffffffffffffffffffffffffffffffff168152602001908152602001600020600083815260200190815260200160002081905550806007600084815260200190815260200160002081905550505050565b600080823b905060008111915050919050565b60405180608001604052806000815260200160608152602001600015158152602001600081525090565b82805461395090614b2c565b90600052602060002090601f01602090048101928261397257600085556139b9565b82601f1061398b57805160ff19168380011785556139b9565b828001600101855582156139b9579182015b828111156139b857825182559160200191906001019061399d565b5b5090506139c691906139ca565b5090565b5b808211156139e35760008160009055506001016139cb565b5090565b60006139fa6139f584614848565b614823565b905082815260208101848484011115613a1257600080fd5b613a1d848285614ac0565b509392505050565b6000613a38613a3384614879565b614823565b905082815260208101848484011115613a5057600080fd5b613a5b848285614ac0565b509392505050565b600081359050613a7281615383565b92915050565b600081359050613a878161539a565b92915050565b600081359050613a9c816153b1565b92915050565b600081519050613ab1816153b1565b92915050565b600082601f830112613ac857600080fd5b8135613ad88482602086016139e7565b91505092915050565b600082601f830112613af257600080fd5b8135613b02848260208601613a25565b91505092915050565b600081359050613b1a816153c8565b92915050565b600060208284031215613b3257600080fd5b6000613b4084828501613a63565b91505092915050565b60008060408385031215613b5c57600080fd5b6000613b6a85828601613a63565b9250506020613b7b85828601613a63565b9150509250929050565b600080600060608486031215613b9a57600080fd5b6000613ba886828701613a63565b9350506020613bb986828701613a63565b9250506040613bca86828701613b0b565b9150509250925092565b60008060008060808587031215613bea57600080fd5b6000613bf887828801613a63565b9450506020613c0987828801613a63565b9350506040613c1a87828801613b0b565b925050606085013567ffffffffffffffff811115613c3757600080fd5b613c4387828801613ab7565b91505092959194509250565b60008060408385031215613c6257600080fd5b6000613c7085828601613a63565b9250506020613c8185828601613a78565b9150509250929050565b600080600060608486031215613ca057600080fd5b6000613cae86828701613a63565b935050602084013567ffffffffffffffff811115613ccb57600080fd5b613cd786828701613ae1565b9250506040613ce886828701613b0b565b9150509250925092565b60008060408385031215613d0557600080fd5b6000613d1385828601613a63565b9250506020613d2485828601613b0b565b9150509250929050565b600080600060608486031215613d4357600080fd5b6000613d5186828701613a63565b9350506020613d6286828701613b0b565b9250506040613d7386828701613b0b565b9150509250925092565b600060208284031215613d8f57600080fd5b6000613d9d84828501613a8d565b91505092915050565b600060208284031215613db857600080fd5b6000613dc684828501613aa2565b91505092915050565b600060208284031215613de157600080fd5b6000613def84828501613b0b565b91505092915050565b60008060408385031215613e0b57600080fd5b6000613e1985828601613b0b565b9250506020613e2a85828601613b0b565b9150509250929050565b6000613e408383614331565b905092915050565b613e5181614a4c565b82525050565b6000613e62826148ba565b613e6c81856148e8565b935083602082028501613e7e856148aa565b8060005b85811015613eba5784840389528151613e9b8582613e34565b9450613ea6836148db565b925060208a01995050600181019050613e82565b50829750879550505050505092915050565b613ed581614a5e565b82525050565b613ee481614a5e565b82525050565b6000613ef5826148c5565b613eff81856148f9565b9350613f0f818560208601614acf565b613f1881614cc5565b840191505092915050565b6000613f2e826148d0565b613f38818561490a565b9350613f48818560208601614acf565b613f5181614cc5565b840191505092915050565b6000613f67826148d0565b613f71818561491b565b9350613f81818560208601614acf565b613f8a81614cc5565b840191505092915050565b6000613fa0826148d0565b613faa818561492c565b9350613fba818560208601614acf565b80840191505092915050565b6000613fd3602b8361491b565b9150613fde82614cd6565b604082019050919050565b6000613ff660328361491b565b915061400182614d25565b604082019050919050565b6000614019601c8361491b565b915061402482614d74565b602082019050919050565b600061403c60248361491b565b915061404782614d9d565b604082019050919050565b600061405f60198361491b565b915061406a82614dec565b602082019050919050565b6000614082602a8361491b565b915061408d82614e15565b604082019050919050565b60006140a5602c8361491b565b91506140b082614e64565b604082019050919050565b60006140c860388361491b565b91506140d382614eb3565b604082019050919050565b60006140eb602a8361491b565b91506140f682614f02565b604082019050919050565b600061410e60298361491b565b915061411982614f51565b604082019050919050565b600061413160268361491b565b915061413c82614fa0565b604082019050919050565b600061415460208361491b565b915061415f82614fef565b602082019050919050565b6000614177602c8361491b565b915061418282615018565b604082019050919050565b600061419a60268361491b565b91506141a582615067565b604082019050919050565b60006141bd60298361491b565b91506141c8826150b6565b604082019050919050565b60006141e0602f8361491b565b91506141eb82615105565b604082019050919050565b600061420360218361491b565b915061420e82615154565b604082019050919050565b6000614226601a8361491b565b9150614231826151a3565b602082019050919050565b600061424960318361491b565b9150614254826151cc565b604082019050919050565b600061426c602c8361491b565b91506142778261521b565b604082019050919050565b600061428f601c8361491b565b915061429a8261526a565b602082019050919050565b60006142b260148361491b565b91506142bd82615293565b602082019050919050565b60006142d560128361491b565b91506142e0826152bc565b602082019050919050565b60006142f860238361491b565b9150614303826152e5565b604082019050919050565b600061431b60248361491b565b915061432682615334565b604082019050919050565b60006080830160008301516143496000860182614394565b50602083015184820360208601526143618282613f23565b91505060408301516143766040860182613ecc565b5060608301516143896060860182614394565b508091505092915050565b61439d81614ab6565b82525050565b6143ac81614ab6565b82525050565b60006143be8285613f95565b91506143ca8284613f95565b91508190509392505050565b60006020820190506143eb6000830184613e48565b92915050565b60006080820190506144066000830187613e48565b6144136020830186613e48565b61442060408301856143a3565b81810360608301526144328184613eea565b905095945050505050565b600060208201905081810360008301526144578184613e57565b905092915050565b60006020820190506144746000830184613edb565b92915050565b600060208201905081810360008301526144948184613f5c565b905092915050565b600060208201905081810360008301526144b581613fc6565b9050919050565b600060208201905081810360008301526144d581613fe9565b9050919050565b600060208201905081810360008301526144f58161400c565b9050919050565b600060208201905081810360008301526145158161402f565b9050919050565b6000602082019050818103600083015261453581614052565b9050919050565b6000602082019050818103600083015261455581614075565b9050919050565b6000602082019050818103600083015261457581614098565b9050919050565b60006020820190508181036000830152614595816140bb565b9050919050565b600060208201905081810360008301526145b5816140de565b9050919050565b600060208201905081810360008301526145d581614101565b9050919050565b600060208201905081810360008301526145f581614124565b9050919050565b6000602082019050818103600083015261461581614147565b9050919050565b600060208201905081810360008301526146358161416a565b9050919050565b600060208201905081810360008301526146558161418d565b9050919050565b60006020820190508181036000830152614675816141b0565b9050919050565b60006020820190508181036000830152614695816141d3565b9050919050565b600060208201905081810360008301526146b5816141f6565b9050919050565b600060208201905081810360008301526146d581614219565b9050919050565b600060208201905081810360008301526146f58161423c565b9050919050565b600060208201905081810360008301526147158161425f565b9050919050565b6000602082019050818103600083015261473581614282565b9050919050565b60006020820190508181036000830152614755816142a5565b9050919050565b60006020820190508181036000830152614775816142c8565b9050919050565b60006020820190508181036000830152614795816142eb565b9050919050565b600060208201905081810360008301526147b58161430e565b9050919050565b60006020820190506147d160008301846143a3565b92915050565b60006080820190506147ec60008301876143a3565b81810360208301526147fe8186613f5c565b905061480d6040830185613edb565b61481a60608301846143a3565b95945050505050565b600061482d61483e565b90506148398282614b5e565b919050565b6000604051905090565b600067ffffffffffffffff82111561486357614862614c96565b5b61486c82614cc5565b9050602081019050919050565b600067ffffffffffffffff82111561489457614893614c96565b5b61489d82614cc5565b9050602081019050919050565b6000819050602082019050919050565b600081519050919050565b600081519050919050565b600081519050919050565b6000602082019050919050565b600082825260208201905092915050565b600082825260208201905092915050565b600082825260208201905092915050565b600082825260208201905092915050565b600081905092915050565b600061494282614ab6565b915061494d83614ab6565b9250827fffffffffffffffffffffffffffffffffffffffffffffffffffffffffffffffff0382111561498257614981614c09565b5b828201905092915050565b600061499882614ab6565b91506149a383614ab6565b9250826149b3576149b2614c38565b5b828204905092915050565b60006149c982614ab6565b91506149d483614ab6565b9250817fffffffffffffffffffffffffffffffffffffffffffffffffffffffffffffffff0483118215151615614a0d57614a0c614c09565b5b828202905092915050565b6000614a2382614ab6565b9150614a2e83614ab6565b925082821015614a4157614a40614c09565b5b828203905092915050565b6000614a5782614a96565b9050919050565b60008115159050919050565b60007fffffffff0000000000000000000000000000000000000000000000000000000082169050919050565b600073ffffffffffffffffffffffffffffffffffffffff82169050919050565b6000819050919050565b82818337600083830152505050565b60005b83811015614aed578082015181840152602081019050614ad2565b83811115614afc576000848401525b50505050565b6000614b0d82614ab6565b91506000821415614b2157614b20614c09565b5b600182039050919050565b60006002820490506001821680614b4457607f821691505b60208210811415614b5857614b57614c67565b5b50919050565b614b6782614cc5565b810181811067ffffffffffffffff82111715614b8657614b85614c96565b5b80604052505050565b6000614b9a82614ab6565b91507fffffffffffffffffffffffffffffffffffffffffffffffffffffffffffffffff821415614bcd57614bcc614c09565b5b600182019050919050565b6000614be382614ab6565b9150614bee83614ab6565b925082614bfe57614bfd614c38565b5b828206905092915050565b7f4e487b7100000000000000000000000000000000000000000000000000000000600052601160045260246000fd5b7f4e487b7100000000000000000000000000000000000000000000000000000000600052601260045260246000fd5b7f4e487b7100000000000000000000000000000000000000000000000000000000600052602260045260246000fd5b7f4e487b7100000000000000000000000000000000000000000000000000000000600052604160045260246000fd5b6000601f19601f8301169050919050565b7f455243373231456e756d657261626c653a206f776e657220696e646578206f7560008201527f74206f6620626f756e6473000000000000000000000000000000000000000000602082015250565b7f4552433732313a207472616e7366657220746f206e6f6e20455243373231526560008201527f63656976657220696d706c656d656e7465720000000000000000000000000000602082015250565b7f4552433732313a20746f6b656e20616c7265616479206d696e74656400000000600082015250565b7f4552433732313a207472616e7366657220746f20746865207a65726f2061646460008201527f7265737300000000000000000000000000000000000000000000000000000000602082015250565b7f4552433732313a20617070726f766520746f2063616c6c657200000000000000600082015250565b7f456c20746f6b656e2071756520696e74656e746173207472616e73666572697260008201527f206e6f2065786973746500000000000000000000000000000000000000000000602082015250565b7f4552433732313a206f70657261746f7220717565727920666f72206e6f6e657860008201527f697374656e7420746f6b656e0000000000000000000000000000000000000000602082015250565b7f4552433732313a20617070726f76652063616c6c6572206973206e6f74206f7760008201527f6e6572206e6f7220617070726f76656420666f7220616c6c0000000000000000602082015250565b7f4552433732313a2062616c616e636520717565727920666f7220746865207a6560008201527f726f206164647265737300000000000000000000000000000000000000000000602082015250565b7f4552433732313a206f776e657220717565727920666f72206e6f6e657869737460008201527f656e7420746f6b656e0000000000000000000000000000000000000000000000602082015250565b7f736f6c6f20656c206475656e6f2064656c20746f6b656e20707565646520766560008201527f6e6465726c6f0000000000000000000000000000000000000000000000000000602082015250565b7f4552433732313a206d696e7420746f20746865207a65726f2061646472657373600082015250565b7f4552433732313a20617070726f76656420717565727920666f72206e6f6e657860008201527f697374656e7420746f6b656e0000000000000000000000000000000000000000602082015250565b7f456c20746f6b656e2071756520696e74656e746173207175656d6172206e6f2060008201527f6578697374650000000000000000000000000000000000000000000000000000602082015250565b7f4552433732313a207472616e73666572206f6620746f6b656e2074686174206960008201527f73206e6f74206f776e0000000000000000000000000000000000000000000000602082015250565b7f4552433732314d657461646174613a2055524920717565727920666f72206e6f60008201527f6e6578697374656e7420746f6b656e0000000000000000000000000000000000602082015250565b7f4552433732313a20617070726f76616c20746f2063757272656e74206f776e6560008201527f7200000000000000000000000000000000000000000000000000000000000000602082015250565b7f4573746520746f6b656e206e6f2074652070657274656e656365000000000000600082015250565b7f4552433732313a207472616e736665722063616c6c6572206973206e6f74206f60008201527f776e6572206e6f7220617070726f766564000000000000000000000000000000602082015250565b7f455243373231456e756d657261626c653a20676c6f62616c20696e646578206f60008201527f7574206f6620626f756e64730000000000000000000000000000000000000000602082015250565b7f616c206d656e6f73206465626520686162657220756e20746f6b656e00000000600082015250565b7f666f6e646f7320696e737566696369656e746573000000000000000000000000600082015250565b7f6e6f20686179206e667473206772617469730000000000000000000000000000600082015250565b7f65736520746f6b656e20746f6461766961206e6f206861207369646f2063726560008201527f61646f0000000000000000000000000000000000000000000000000000000000602082015250565b7f6e6f20736520656e6375656e7472612061206c612076656e746120657365207460008201527f6f6b656e00000000000000000000000000000000000000000000000000000000602082015250565b61538c81614a4c565b811461539757600080fd5b50565b6153a381614a5e565b81146153ae57600080fd5b50565b6153ba81614a6a565b81146153c557600080fd5b50565b6153d181614ab6565b81146153dc57600080fd5b5056fea2646970667358221220a4f08c3d4289a53be5303af2938f25a90a11cf985dbbdbdbe36c802ba274d83864736f6c63430008010033",
  "immutableReferences": {},
  "source": "// SPDX-License-Identifier: MIT\r\npragma solidity >=0.4.22 <0.9.0;\r\nimport \"@openzeppelin/contracts/token/ERC721/ERC721.sol\";\r\nimport \"@openzeppelin/contracts/token/ERC721/extensions/ERC721Enumerable.sol\";\r\nimport \"@openzeppelin/contracts/utils/Counters.sol\";\r\n\r\ncontract MarketPlace is ERC721Enumerable {\r\n    using Counters for Counters.Counter;\r\n    //representa un entero que lleva la cuenta de los tokensNFT\r\n    Counters.Counter public _tokenIds;\r\n\r\n    //matenera el dueo del contrato o quien lo mino\r\n    address public minero;\r\n\r\n    //es el numero de tokens en venta\r\n    uint256 public nTokenOnSale;\r\n    // es la representacion de un token\r\n    struct tokenData {\r\n        uint256 price;\r\n        string data;\r\n        bool onSale;\r\n        uint256 tokenID;\r\n    }\r\n\r\n    //contiene todas las representacion de cada token\r\n    mapping(uint256 => tokenData) public tokensData;\r\n\r\n    constructor() ERC721(\"MarketPlace\", \"MPE\") {\r\n        minero = msg.sender;\r\n    }\r\n\r\n    /**\r\n    mina nuevos tokens\r\n\t@param receptor {address} es a quien mandaremos el  token \r\n\t@param datos    {string} es un json con todos los datos del token\r\n\t@param price    {uint256} the price in weis\r\n    @return {uint256} equivale a el tokenid recien creado\r\n\t */\r\n    function minar(\r\n        address receptor,\r\n        string memory datos,\r\n        uint256 price\r\n    ) public returns (uint256) {\r\n        //obtener el tokenid actual\r\n        uint256 newItemId = _tokenIds.current();\r\n\r\n        //aumentar en 1 el conteo de tokens\r\n        _tokenIds.increment();\r\n\r\n        //minar el token\r\n        _mint(receptor, newItemId);\r\n\r\n        //agregar los datos a nuestro mapping\r\n        tokensData[newItemId].data = datos;\r\n        tokensData[newItemId].price = price;\r\n        tokensData[newItemId].onSale = true;\r\n        tokensData[newItemId].tokenID = newItemId;\r\n\r\n        //agregar a la venta el nuevo token\r\n        nTokenOnSale++;\r\n        return newItemId;\r\n    }\r\n\r\n    /**\r\n    * Funcin para transferir un token NFT del propietario a otro address\r\n    @param to {address} representa a quien vamos a transferir nuestro NFT\r\n    @param tokenId {uint256} este valor indica el id que vamos a transferir \r\n    @return {addresss}  esta funcin nos retorna el address del nuevo propietario del NFT\r\n     */\r\n\r\n    function transferirNft(address to, uint256 tokenId)\r\n        public\r\n        returns (address)\r\n    {\r\n        require(_exists(tokenId), \"El token que intentas transferir no existe\");\r\n        require(msg.sender == ownerOf(tokenId), \"Este token no te pertenece\");\r\n\r\n        //transferir el token NFT si el token id existe y es nuestro\r\n        safeTransferFrom(msg.sender, to, tokenId);\r\n        //retornar el nuevo owner del token NFT\r\n        return to;\r\n    }\r\n\r\n    /** \r\n    * Funcin para eliminar un token NFT en tu address\r\n    @param tokenId {uint256} representa el id del token NFT a eliminar\r\n    @return {success} si el proceso fue llevado con exito la funcion retorna un true\r\n     */\r\n    function quemarNft(uint256 tokenId) public returns (bool) {\r\n        require(_exists(tokenId), \"El token que intentas quemar no existe\");\r\n        require(msg.sender == ownerOf(tokenId), \"Este token no te pertenece\");\r\n\r\n        //Eliminamos el token NFT si el token id existe y es nuestro\r\n        _burn(tokenId);\r\n\r\n        return true;\r\n    }\r\n\r\n    /**\r\n     * pone a la venta un token y si le das el precio lo cambia\r\n     *@param tokenid {uint256} representa el identificador del tokenid\r\n     *@param price  {uint256} representa el precio en wei al que se vendera\r\n     *\r\n     */\r\n    function revender(uint256 tokenid, uint256 price) public {\r\n        require(\r\n            ownerOf(tokenid) == msg.sender,\r\n            \"solo el dueno del token puede venderlo\"\r\n        );\r\n        require(price > 0, \"no hay nfts gratis\");\r\n        tokensData[tokenid].onSale = true;\r\n        tokensData[tokenid].price = price;\r\n        nTokenOnSale++;\r\n    }\r\n\r\n    /**\r\n     *cambia el estado del token para que este no pueda ser visualizado o vendido\r\n     *@param tokenid {uint256} tokenid representa el token al cual afectar\r\n     */\r\n    function quitarDelMarketPlace(uint256 tokenid) public {\r\n        //este require solo permite que el owner del tokenid pueda usar la funcion\r\n        require(\r\n            ownerOf(tokenid) == msg.sender,\r\n            \"solo el dueno del token puede venderlo\"\r\n        );\r\n        // impide que accedamos a una posicion inexistente\r\n        require(\r\n            tokenid < _tokenIds.current(),\r\n            \"ese token todavia no ha sido creado\"\r\n        );\r\n        tokensData[tokenid].onSale = false;\r\n        nTokenOnSale--;\r\n    }\r\n\r\n    /**\r\n     *regresa todos los nft disponibles\r\n     *@return tokenData[] contiene todos los tokens disponibles\r\n     */\r\n    function obtenerNfts() public view returns (tokenData[] memory) {\r\n        //es el numero de tokens\r\n        uint256 nTokens = _tokenIds.current();\r\n        //es un arreglo temporal con todos los nfts\r\n        tokenData[] memory onSaleTokensData = new tokenData[](nTokens);\r\n        //sacamos los nft del mapping y los almacenamos en el arreglo\r\n        for (uint256 index = 0; index < nTokens; index++) {\r\n            onSaleTokensData[index] = tokensData[index];\r\n        }\r\n\r\n        return onSaleTokensData;\r\n    }\r\n\r\n    /**\r\n     *trata a tokensData como un arreglo divido entre nTokenP\r\n     * el inicio de una pagina es el numero de pagina por el numero de tokens por pagina\r\n     * @param nTokenP uint256 es el numero de tokens que tiene una pagina\r\n     * @param nPagina contiene que pagina vamos a consultar\r\n     *@return tokenData[] contiene los tokens de una pagina\r\n     */\r\n    function obtenerPaginav1(uint256 nTokenP, uint256 nPagina)\r\n        public\r\n        view\r\n        returns (tokenData[] memory)\r\n    {\r\n        //es el incio del ciclo o el inicio de  la pagina\r\n        uint256 inicioPagina = nPagina * nTokenP;\r\n        //es un arreglo temporal con todos los nfts de la pagina\r\n        tokenData[] memory onSaleTokensData = new tokenData[](nTokenP);\r\n        //sacamos los nft y los almacenamos en el arreglo\r\n        for (\r\n            uint256 index = inicioPagina;\r\n            index < nTokenP * (nPagina + 1);\r\n            index++\r\n        ) {\r\n            //agregar tokens al arreglo\r\n            onSaleTokensData[index - inicioPagina] = tokensData[index];\r\n        }\r\n\r\n        return onSaleTokensData;\r\n    }\r\n\r\n    /**\r\n     *nos regresa los tokens que estan en venta hasta que se llene el arreglo o termine el ciclo\r\n     * espera a llenar el contador hasta que es el incio de la pagina que solicito\r\n     * @param nTokenP uint256 es el numero de tokens que tiene una pagina\r\n     * @param nPagina contiene que pagina vamos a consultar\r\n     *@return tokenData[] contiene los tokens de una pagina\r\n     */\r\n    function obtenerPaginav2(uint256 nTokenP, uint256 nPagina)\r\n        public\r\n        view\r\n        returns (tokenData[] memory)\r\n    {\r\n        //es el numero de tokens\r\n        uint256 nTokens = _tokenIds.current();\r\n        //es la posicion del el ultimo token agregado a onsaletokendata\r\n        uint256 lastToken = 0;\r\n        //cuenta cuantos tokens en venta van\r\n        uint256 ostok = 0;\r\n        //a partir de cuantos tokens comienza\r\n        //es un arreglo temporal con todos los nfts de la pagina\r\n        tokenData[] memory onSaleTokensData = new tokenData[](nTokenP);\r\n        //sacamos los nft y los almacenamos en el arreglo\r\n        for (uint256 index = 0; index < nTokens; index++) {\r\n            //si esta en venta\r\n            if (tokensData[index].onSale) {\r\n                //aumentamos el numero de tokens que estan a la venta\r\n                ostok++;\r\n                //si el numero de tokens es mayor o igual al incio de la pagina comenzamos a agregar tokens al arreglo\r\n                if (ostok >= nTokenP * nPagina) {\r\n                    onSaleTokensData[lastToken] = tokensData[index];\r\n                    lastToken++;\r\n                }\r\n                //si el numero de tokens llega al fin de la pagina cancelamos el for\r\n                if (ostok == nTokenP * (nPagina + 1)) break;\r\n            }\r\n            //agregar tokens al arreglo\r\n        }\r\n\r\n        return onSaleTokensData;\r\n    }\r\n\r\n    /**\r\n     *con esta funcion cualquiera puede comprar el nft que desea\r\n     *@param tokenId {uint256} tokenid representa el tokenid a comprar\r\n     */\r\n    function comprarNft(uint256 tokenId) public payable {\r\n        //este require se asegura que se mando el suficiente ether para comprar el token\r\n        require(msg.value == tokensData[tokenId].price, \"fondos insuficientes\");\r\n        //se impide la venta si no esta en venta el token\r\n        require(\r\n            tokensData[tokenId].onSale,\r\n            \"no se encuentra a la venta ese token\"\r\n        );\r\n        //es el dueo del token\r\n        address payable tokenOwner = payable(ownerOf(tokenId));\r\n\r\n        //mandamos el token al comprador\r\n        _transfer(tokenOwner, msg.sender, tokenId);\r\n\r\n        //le transferimos el dinero al  vendedor\r\n        tokenOwner.transfer(msg.value);\r\n\r\n        //poner el token en pausa\r\n        tokensData[tokenId].onSale = false;\r\n\r\n        nTokenOnSale--;\r\n    }\r\n\r\n    /**\r\n     * @param owner {address}  representa la direccin al cual consultar los tokens\r\n     * @return tokenData[] arreglo con todos los datos de cada token\r\n     */\r\n    function tokensOf(address owner) public view returns (tokenData[] memory) {\r\n        //numero de tokens\r\n        uint256 nTokens = balanceOf(owner);\r\n        if (nTokens == 0) {\r\n            return (new tokenData[](nTokens));\r\n        }\r\n        //arreglo con los tokens\r\n        tokenData[] memory userTokens = new tokenData[](nTokens);\r\n\r\n        for (uint256 i = 0; i < nTokens; i++) {\r\n            //obtener los datos de cada uno de los tokens\r\n            userTokens[i] = tokensData[tokenOfOwnerByIndex(owner, i)];\r\n        }\r\n        return (userTokens);\r\n    }\r\n\r\n    function tokensOfPaginav1(\r\n        address owner,\r\n        uint256 nTok_porpagina,\r\n        uint256 pag\r\n    ) public view returns (tokenData[] memory) {\r\n        uint256 nUserTokens = balanceOf(owner);\r\n        //calcular el inicio de la pagina\r\n        uint256 inicioPagina = pag * nTok_porpagina;\r\n        //si el fin es mayor que el numero de tokens\r\n        uint256 finPagina = inicioPagina + nTok_porpagina;\r\n        if (finPagina > nUserTokens) {\r\n            finPagina = nUserTokens; // 4\r\n        }\r\n        //arreglo con los tokens del usuario\r\n        tokenData[] memory userTokens = new tokenData[](nTok_porpagina);\r\n        for (uint256 i = inicioPagina; i < finPagina; i++) {\r\n            userTokens[i - inicioPagina] = tokensData[\r\n                tokenOfOwnerByIndex(owner, i)\r\n            ];\r\n        }\r\n        return userTokens;\r\n    }\r\n//metodo para la obtencion de la metadata de un token en especidifco\r\n function getItemInfo(uint256 _token)public view returns(tokenData[] memory){\r\n      tokenData[] memory getone = new tokenData[](1);\r\n        getone[0]=tokensData[ _token] ;\r\n      return getone;\r\n       \r\n    }\r\n//metodo para la obtencion de un rango de tokensData\r\n  function obtenerNftsbyrango(uint256 _Mintoken,uint256 _Maxtoken) public view returns (tokenData[] memory) {\r\n        //obetenemos el numero acutal de tokens\r\n       \r\n        require(_tokenIds.current()>0,\"al menos debe haber un token\");\r\n        \r\n\r\n\r\n    //es el numero de tokens\r\n        uint256 nTokens = _tokenIds.current();\r\n        //es un arreglo temporal con todos los nfts\r\n         uint256 arr = _Maxtoken - _Mintoken;\r\n        tokenData[] memory onSaleTokensData = new tokenData[](arr);\r\n        //sacamos los nft del mapping y los almacenamos en el arreglo\r\n        for (uint256 index = 0; index < nTokens; index++) {\r\n            if(index >= _Mintoken && index <_Maxtoken ){\r\n                 onSaleTokensData[index] = tokensData[index];\r\n            }\r\n             if (index == _Maxtoken  ) break;\r\n           \r\n        }\r\n\r\n        return onSaleTokensData;\r\n    }\r\n\r\n}\r\n",
  "sourcePath": "C:\\Users\\dokxo\\Documents\\Cloudmex\\NFT-culturas-latinas\\blockchain\\contracts\\MarketPlace.sol",
  "compiler": {
    "name": "solc",
    "version": "0.8.1+commit.df193b15.Emscripten.clang"
  },
  "schemaVersion": "3.4.3",
  "updatedAt": "2021-10-14T19:33:20.681Z",
  "networkType": "ethereum",
  "devdoc": {
    "kind": "dev",
    "methods": {
      "approve(address,uint256)": {
        "details": "See {IERC721-approve}."
      },
      "balanceOf(address)": {
        "details": "See {IERC721-balanceOf}."
      },
      "comprarNft(uint256)": {
        "params": {
          "tokenId": "{uint256} tokenid representa el tokenid a comprar"
        }
      },
      "getApproved(uint256)": {
        "details": "See {IERC721-getApproved}."
      },
      "isApprovedForAll(address,address)": {
        "details": "See {IERC721-isApprovedForAll}."
      },
      "minar(address,string,uint256)": {
        "params": {
          "datos": "{string} es un json con todos los datos del token",
          "price": "{uint256} the price in weis",
          "receptor": "{address} es a quien mandaremos el  token "
        },
        "returns": {
          "_0": "{uint256} equivale a el tokenid recien creado"
        }
      },
      "name()": {
        "details": "See {IERC721Metadata-name}."
      },
      "obtenerNfts()": {
        "returns": {
          "_0": "tokenData[] contiene todos los tokens disponibles"
        }
      },
      "obtenerPaginav1(uint256,uint256)": {
        "params": {
          "nPagina": "contiene que pagina vamos a consultar",
          "nTokenP": "uint256 es el numero de tokens que tiene una pagina"
        },
        "returns": {
          "_0": "tokenData[] contiene los tokens de una pagina"
        }
      },
      "obtenerPaginav2(uint256,uint256)": {
        "params": {
          "nPagina": "contiene que pagina vamos a consultar",
          "nTokenP": "uint256 es el numero de tokens que tiene una pagina"
        },
        "returns": {
          "_0": "tokenData[] contiene los tokens de una pagina"
        }
      },
      "ownerOf(uint256)": {
        "details": "See {IERC721-ownerOf}."
      },
      "quemarNft(uint256)": {
        "params": {
          "tokenId": "{uint256} representa el id del token NFT a eliminar"
        },
        "returns": {
          "_0": "{success} si el proceso fue llevado con exito la funcion retorna un true"
        }
      },
      "quitarDelMarketPlace(uint256)": {
        "params": {
          "tokenid": "{uint256} tokenid representa el token al cual afectar"
        }
      },
      "revender(uint256,uint256)": {
        "params": {
          "price": "{uint256} representa el precio en wei al que se vendera",
          "tokenid": "{uint256} representa el identificador del tokenid"
        }
      },
      "safeTransferFrom(address,address,uint256)": {
        "details": "See {IERC721-safeTransferFrom}."
      },
      "safeTransferFrom(address,address,uint256,bytes)": {
        "details": "See {IERC721-safeTransferFrom}."
      },
      "setApprovalForAll(address,bool)": {
        "details": "See {IERC721-setApprovalForAll}."
      },
      "supportsInterface(bytes4)": {
        "details": "See {IERC165-supportsInterface}."
      },
      "symbol()": {
        "details": "See {IERC721Metadata-symbol}."
      },
      "tokenByIndex(uint256)": {
        "details": "See {IERC721Enumerable-tokenByIndex}."
      },
      "tokenOfOwnerByIndex(address,uint256)": {
        "details": "See {IERC721Enumerable-tokenOfOwnerByIndex}."
      },
      "tokenURI(uint256)": {
        "details": "See {IERC721Metadata-tokenURI}."
      },
      "tokensOf(address)": {
        "params": {
          "owner": "{address}  representa la direccin al cual consultar los tokens"
        },
        "returns": {
          "_0": "tokenData[] arreglo con todos los datos de cada token"
        }
      },
      "totalSupply()": {
        "details": "See {IERC721Enumerable-totalSupply}."
      },
      "transferFrom(address,address,uint256)": {
        "details": "See {IERC721-transferFrom}."
      },
      "transferirNft(address,uint256)": {
        "params": {
          "to": "{address} representa a quien vamos a transferir nuestro NFT",
          "tokenId": "{uint256} este valor indica el id que vamos a transferir "
        },
        "returns": {
          "_0": "{addresss}  esta funcin nos retorna el address del nuevo propietario del NFT"
        }
      }
    },
    "version": 1
  },
  "userdoc": {
    "kind": "user",
    "methods": {
      "comprarNft(uint256)": {
        "notice": "con esta funcion cualquiera puede comprar el nft que desea"
      },
      "minar(address,string,uint256)": {
        "notice": "mina nuevos tokens"
      },
      "obtenerNfts()": {
        "notice": "regresa todos los nft disponibles"
      },
      "obtenerPaginav1(uint256,uint256)": {
        "notice": "trata a tokensData como un arreglo divido entre nTokenP el inicio de una pagina es el numero de pagina por el numero de tokens por pagina"
      },
      "obtenerPaginav2(uint256,uint256)": {
        "notice": "nos regresa los tokens que estan en venta hasta que se llene el arreglo o termine el ciclo espera a llenar el contador hasta que es el incio de la pagina que solicito"
      },
      "quemarNft(uint256)": {
        "notice": "Funcin para eliminar un token NFT en tu address"
      },
      "quitarDelMarketPlace(uint256)": {
        "notice": "cambia el estado del token para que este no pueda ser visualizado o vendido"
      },
      "revender(uint256,uint256)": {
        "notice": "pone a la venta un token y si le das el precio lo cambia"
      },
      "transferirNft(address,uint256)": {
        "notice": "Funcin para transferir un token NFT del propietario a otro address"
      }
    },
    "version": 1
  }
}